{
  "contractName": "Exemptions",
  "abi": [
    {
      "inputs": [],
      "payable": false,
      "stateMutability": "nonpayable",
      "type": "constructor"
    },
    {
      "constant": true,
      "inputs": [],
      "name": "exemptionCount",
      "outputs": [
        {
          "internalType": "uint256",
          "name": "",
          "type": "uint256"
        }
      ],
      "payable": false,
      "stateMutability": "view",
      "type": "function"
    },
    {
      "constant": true,
      "inputs": [
        {
          "internalType": "uint256",
          "name": "",
          "type": "uint256"
        }
      ],
      "name": "exemptions",
      "outputs": [
        {
          "internalType": "uint256",
          "name": "id",
          "type": "uint256"
        },
        {
          "internalType": "string",
          "name": "name",
          "type": "string"
        },
        {
          "internalType": "string",
          "name": "course",
          "type": "string"
        },
        {
          "internalType": "uint256",
          "name": "student_id",
          "type": "uint256"
        }
      ],
      "payable": false,
      "stateMutability": "view",
      "type": "function"
    },
    {
      "constant": true,
      "inputs": [],
      "name": "testFunc",
      "outputs": [
        {
          "internalType": "uint256[]",
          "name": "result",
          "type": "uint256[]"
        }
      ],
      "payable": false,
      "stateMutability": "view",
      "type": "function"
    },
    {
      "constant": true,
      "inputs": [
        {
          "internalType": "uint256",
          "name": "student_id",
          "type": "uint256"
        }
      ],
      "name": "fromStudent",
      "outputs": [
        {
          "internalType": "string[]",
          "name": "filtered",
          "type": "string[]"
        }
      ],
      "payable": false,
      "stateMutability": "view",
      "type": "function"
    },
    {
      "constant": false,
      "inputs": [
        {
          "internalType": "string",
          "name": "_name",
          "type": "string"
        },
        {
          "internalType": "string",
          "name": "_course",
          "type": "string"
        },
        {
          "internalType": "uint256",
          "name": "_student_id",
          "type": "uint256"
        }
      ],
      "name": "createExemption",
      "outputs": [],
      "payable": false,
      "stateMutability": "nonpayable",
      "type": "function"
    }
  ],
  "bytecode": "0x60806040526000805534801561001457600080fd5b506100926040518060400160405280600b81526020017f7465737473747564656e740000000000000000000000000000000000000000008152506040518060400160405280600781526020017f7465737476616b000000000000000000000000000000000000000000000000008152506103e861009760201b60201c565b6101da565b600080815480929190600101919050555060405180608001604052806000548152602001848152602001838152602001828152506001600080548152602001908152602001600020600082015181600001556020820151816001019080519060200190610105929190610135565b506040820151816002019080519060200190610122929190610135565b5060608201518160030155905050505050565b828054600181600116156101000203166002900490600052602060002090601f016020900481019282601f1061017657805160ff19168380011785556101a4565b828001600101855582156101a4579182015b828111156101a3578251825591602001919060010190610188565b5b5090506101b191906101b5565b5090565b6101d791905b808211156101d35760008160009055506001016101bb565b5090565b90565b610b01806101e96000396000f3fe608060405234801561001057600080fd5b50600436106100575760003560e01c8063037a417c1461005c57806309b0e24c1461007a5780636438263014610096578063e00263d6146100c9578063efd1b5bb146100f9575b600080fd5b610064610117565b60405161007191906108c2565b60405180910390f35b610094600480360361008f9190810190610669565b610186565b005b6100b060048036036100ab91908101906106e8565b610224565b6040516100c094939291906108ff565b60405180910390f35b6100e360048036036100de91908101906106e8565b610384565b6040516100f091906108a0565b60405180910390f35b610101610555565b60405161010e91906108e4565b60405180910390f35b606060026040519080825280602002602001820160405280156101495781602001602082028038833980820191505090505b50905060008090505b600281101561018257600282828151811061016957fe5b6020026020010181815250508080600101915050610152565b5090565b6000808154809291906001019190505550604051806080016040528060005481526020018481526020018381526020018281525060016000805481526020019081526020016000206000820151816000015560208201518160010190805190602001906101f492919061055b565b50604082015181600201908051906020019061021192919061055b565b5060608201518160030155905050505050565b6001602052806000526040600020600091509050806000015490806001018054600181600116156101000203166002900480601f0160208091040260200160405190810160405280929190818152602001828054600181600116156101000203166002900480156102d65780601f106102ab576101008083540402835291602001916102d6565b820191906000526020600020905b8154815290600101906020018083116102b957829003601f168201915b505050505090806002018054600181600116156101000203166002900480601f0160208091040260200160405190810160405280929190818152602001828054600181600116156101000203166002900480156103745780601f1061034957610100808354040283529160200191610374565b820191906000526020600020905b81548152906001019060200180831161035757829003601f168201915b5050505050908060030154905084565b6060806000546040519080825280602002602001820160405280156103bd57816020015b60608152602001906001900390816103a85790505b509050600080905060008090505b6000548110156104cf5784600160008381526020019081526020016000206003015414156104c257600160008281526020019081526020016000206002018054600181600116156101000203166002900480601f01602080910402602001604051908101604052809291908181526020018280546001816001161561010002031660029004801561049d5780601f106104725761010080835404028352916020019161049d565b820191906000526020600020905b81548152906001019060200180831161048057829003601f168201915b50505050508383815181106104ae57fe5b602002602001018190525081806001019250505b80806001019150506103cb565b508060405190808252806020026020018201604052801561050457816020015b60608152602001906001900390816104ef5790505b50925060008090505b8181101561054d5782818151811061052157fe5b602002602001015184828151811061053557fe5b6020026020010181905250808060010191505061050d565b505050919050565b60005481565b828054600181600116156101000203166002900490600052602060002090601f016020900481019282601f1061059c57805160ff19168380011785556105ca565b828001600101855582156105ca579182015b828111156105c95782518255916020019190600101906105ae565b5b5090506105d791906105db565b5090565b6105fd91905b808211156105f95760008160009055506001016105e1565b5090565b90565b600082601f83011261061157600080fd5b813561062461061f8261097f565b610952565b9150808252602083016020830185838301111561064057600080fd5b61064b838284610a54565b50505092915050565b60008135905061066381610aa7565b92915050565b60008060006060848603121561067e57600080fd5b600084013567ffffffffffffffff81111561069857600080fd5b6106a486828701610600565b935050602084013567ffffffffffffffff8111156106c157600080fd5b6106cd86828701610600565b92505060406106de86828701610654565b9150509250925092565b6000602082840312156106fa57600080fd5b600061070884828501610654565b91505092915050565b600061071d8383610810565b905092915050565b60006107318383610882565b60208301905092915050565b6000610748826109cb565b6107528185610a06565b935083602082028501610764856109ab565b8060005b858110156107a057848403895281516107818582610711565b945061078c836109ec565b925060208a01995050600181019050610768565b50829750879550505050505092915050565b60006107bd826109d6565b6107c78185610a17565b93506107d2836109bb565b8060005b838110156108035781516107ea8882610725565b97506107f5836109f9565b9250506001810190506107d6565b5085935050505092915050565b600061081b826109e1565b6108258185610a28565b9350610835818560208601610a63565b61083e81610a96565b840191505092915050565b6000610854826109e1565b61085e8185610a39565b935061086e818560208601610a63565b61087781610a96565b840191505092915050565b61088b81610a4a565b82525050565b61089a81610a4a565b82525050565b600060208201905081810360008301526108ba818461073d565b905092915050565b600060208201905081810360008301526108dc81846107b2565b905092915050565b60006020820190506108f96000830184610891565b92915050565b60006080820190506109146000830187610891565b81810360208301526109268186610849565b9050818103604083015261093a8185610849565b90506109496060830184610891565b95945050505050565b6000604051905081810181811067ffffffffffffffff8211171561097557600080fd5b8060405250919050565b600067ffffffffffffffff82111561099657600080fd5b601f19601f8301169050602081019050919050565b6000819050602082019050919050565b6000819050602082019050919050565b600081519050919050565b600081519050919050565b600081519050919050565b6000602082019050919050565b6000602082019050919050565b600082825260208201905092915050565b600082825260208201905092915050565b600082825260208201905092915050565b600082825260208201905092915050565b6000819050919050565b82818337600083830152505050565b60005b83811015610a81578082015181840152602081019050610a66565b83811115610a90576000848401525b50505050565b6000601f19601f8301169050919050565b610ab081610a4a565b8114610abb57600080fd5b5056fea365627a7a723158204b7252d4f5ce9ed163f3742aaef9c2043cc1284bd4ccb7928ee94eb01e37ea2b6c6578706572696d656e74616cf564736f6c63430005100040",
  "source": "pragma solidity ^0.5.16;\r\npragma experimental ABIEncoderV2;\r\n\r\ncontract Exemptions {\r\n    uint256 public exemptionCount = 0;\r\n\r\n    struct Exemption {\r\n        uint256 id;\r\n        string name;\r\n        string course;\r\n        uint256 student_id;\r\n    }\r\n\r\n    mapping(uint256 => Exemption) public exemptions;\r\n\r\n    constructor() public {\r\n        createExemption(\"teststudent\", \"testvak\", 1000);\r\n    }\r\n\r\n\r\n    function testFunc() public view returns (uint[] memory result){\r\n        result = new uint[](2);\r\n\r\n        for(uint i = 0; i < 2; i++){\r\n            result[i] = 2;\r\n        }\r\n    }\r\n\r\n    function fromStudent(uint256 student_id)\r\n        public\r\n        view\r\n        returns (string[] memory filtered)\r\n    {\r\n        string[] memory tempList = new string[](exemptionCount);\r\n        uint256 count = 0;\r\n        for (uint256 i = 0; i < exemptionCount; i++) {\r\n            if (exemptions[i].student_id == student_id) {\r\n                tempList[count] = exemptions[i].course;\r\n                count++;\r\n            }\r\n        }\r\n\r\n        filtered = new string[](count);\r\n\r\n        for (uint256 i = 0; i < count; i++) {\r\n            filtered[i] = tempList[i];\r\n        }\r\n    }\r\n\r\n    function createExemption(\r\n        string memory _name,\r\n        string memory _course,\r\n        uint256 _student_id\r\n    ) public {\r\n        exemptionCount++;\r\n        exemptions[exemptionCount] = Exemption(\r\n            exemptionCount,\r\n            _name,\r\n            _course,\r\n            _student_id\r\n        );\r\n    }\r\n}\r\n",
  "sourcePath": "C:/Users/remip/Desktop/Code/python/SDP4a/diplomaarchive/blockchain/contracts/Exemptions.sol",
  "compiler": {
    "name": "solc",
    "version": "0.5.16+commit.9c3226ce.Emscripten.clang"
  },
  "schemaVersion": "3.3.4",
  "updatedAt": "2021-02-21T11:33:18.951Z",
  "networkType": "ethereum",
  "devdoc": {
    "methods": {}
  },
  "userdoc": {
    "methods": {}
  }
}