{
  "contractName": "Exemptions",
  "abi": [
    {
      "inputs": [],
      "payable": false,
      "stateMutability": "nonpayable",
      "type": "constructor"
    },
    {
      "constant": true,
      "inputs": [],
      "name": "exemptionCount",
      "outputs": [
        {
          "internalType": "uint256",
          "name": "",
          "type": "uint256"
        }
      ],
      "payable": false,
      "stateMutability": "view",
      "type": "function"
    },
    {
      "constant": true,
      "inputs": [
        {
          "internalType": "uint256",
          "name": "",
          "type": "uint256"
        }
      ],
      "name": "exemptions",
      "outputs": [
        {
          "internalType": "uint256",
          "name": "id",
          "type": "uint256"
        },
        {
          "internalType": "string",
          "name": "name",
          "type": "string"
        },
        {
          "internalType": "string",
          "name": "course",
          "type": "string"
        },
        {
          "internalType": "uint256",
          "name": "student_id",
          "type": "uint256"
        }
      ],
      "payable": false,
      "stateMutability": "view",
      "type": "function"
    },
    {
      "constant": true,
      "inputs": [
        {
          "internalType": "uint256",
          "name": "student_id",
          "type": "uint256"
        }
      ],
      "name": "fromStudent",
      "outputs": [
        {
          "internalType": "string[]",
          "name": "filtered",
          "type": "string[]"
        }
      ],
      "payable": false,
      "stateMutability": "view",
      "type": "function"
    },
    {
      "constant": false,
      "inputs": [
        {
          "internalType": "string",
          "name": "_name",
          "type": "string"
        },
        {
          "internalType": "string",
          "name": "_course",
          "type": "string"
        },
        {
          "internalType": "uint256",
          "name": "_student_id",
          "type": "uint256"
        }
      ],
      "name": "createExemption",
      "outputs": [],
      "payable": false,
      "stateMutability": "nonpayable",
      "type": "function"
    }
  ],
  "bytecode": "0x60806040526000805534801561001457600080fd5b506100926040518060400160405280600b81526020017f7465737473747564656e740000000000000000000000000000000000000000008152506040518060400160405280600781526020017f7465737476616b000000000000000000000000000000000000000000000000008152506103e861009760201b60201c565b6101da565b604051806080016040528060005481526020018481526020018381526020018281525060016000805481526020019081526020016000206000820151816000015560208201518160010190805190602001906100f4929190610135565b506040820151816002019080519060200190610111929190610135565b50606082015181600301559050506000808154809291906001019190505550505050565b828054600181600116156101000203166002900490600052602060002090601f016020900481019282601f1061017657805160ff19168380011785556101a4565b828001600101855582156101a4579182015b828111156101a3578251825591602001919060010190610188565b5b5090506101b191906101b5565b5090565b6101d791905b808211156101d35760008160009055506001016101bb565b5090565b90565b610989806101e96000396000f3fe608060405234801561001057600080fd5b506004361061004c5760003560e01c806309b0e24c14610051578063643826301461006d578063e00263d6146100a0578063efd1b5bb146100d0575b600080fd5b61006b600480360361006691908101906105d1565b6100ee565b005b61008760048036036100829190810190610650565b61018c565b60405161009794939291906107c0565b60405180910390f35b6100ba60048036036100b59190810190610650565b6102ec565b6040516100c79190610783565b60405180910390f35b6100d86104bd565b6040516100e591906107a5565b60405180910390f35b6040518060800160405280600054815260200184815260200183815260200182815250600160008054815260200190815260200160002060008201518160000155602082015181600101908051906020019061014b9291906104c3565b5060408201518160020190805190602001906101689291906104c3565b50606082015181600301559050506000808154809291906001019190505550505050565b6001602052806000526040600020600091509050806000015490806001018054600181600116156101000203166002900480601f01602080910402602001604051908101604052809291908181526020018280546001816001161561010002031660029004801561023e5780601f106102135761010080835404028352916020019161023e565b820191906000526020600020905b81548152906001019060200180831161022157829003601f168201915b505050505090806002018054600181600116156101000203166002900480601f0160208091040260200160405190810160405280929190818152602001828054600181600116156101000203166002900480156102dc5780601f106102b1576101008083540402835291602001916102dc565b820191906000526020600020905b8154815290600101906020018083116102bf57829003601f168201915b5050505050908060030154905084565b60608060005460405190808252806020026020018201604052801561032557816020015b60608152602001906001900390816103105790505b509050600080905060008090505b60005481101561043757846001600083815260200190815260200160002060030154141561042a57600160008281526020019081526020016000206002018054600181600116156101000203166002900480601f0160208091040260200160405190810160405280929190818152602001828054600181600116156101000203166002900480156104055780601f106103da57610100808354040283529160200191610405565b820191906000526020600020905b8154815290600101906020018083116103e857829003601f168201915b505050505083838151811061041657fe5b602002602001018190525081806001019250505b8080600101915050610333565b508060405190808252806020026020018201604052801561046c57816020015b60608152602001906001900390816104575790505b50925060008090505b818110156104b55782818151811061048957fe5b602002602001015184828151811061049d57fe5b60200260200101819052508080600101915050610475565b505050919050565b60005481565b828054600181600116156101000203166002900490600052602060002090601f016020900481019282601f1061050457805160ff1916838001178555610532565b82800160010185558215610532579182015b82811115610531578251825591602001919060010190610516565b5b50905061053f9190610543565b5090565b61056591905b80821115610561576000816000905550600101610549565b5090565b90565b600082601f83011261057957600080fd5b813561058c61058782610840565b610813565b915080825260208301602083018583830111156105a857600080fd5b6105b38382846108dc565b50505092915050565b6000813590506105cb8161092f565b92915050565b6000806000606084860312156105e657600080fd5b600084013567ffffffffffffffff81111561060057600080fd5b61060c86828701610568565b935050602084013567ffffffffffffffff81111561062957600080fd5b61063586828701610568565b9250506040610646868287016105bc565b9150509250925092565b60006020828403121561066257600080fd5b6000610670848285016105bc565b91505092915050565b60006106858383610702565b905092915050565b60006106988261087c565b6106a2818561089f565b9350836020820285016106b48561086c565b8060005b858110156106f057848403895281516106d18582610679565b94506106dc83610892565b925060208a019950506001810190506106b8565b50829750879550505050505092915050565b600061070d82610887565b61071781856108b0565b93506107278185602086016108eb565b6107308161091e565b840191505092915050565b600061074682610887565b61075081856108c1565b93506107608185602086016108eb565b6107698161091e565b840191505092915050565b61077d816108d2565b82525050565b6000602082019050818103600083015261079d818461068d565b905092915050565b60006020820190506107ba6000830184610774565b92915050565b60006080820190506107d56000830187610774565b81810360208301526107e7818661073b565b905081810360408301526107fb818561073b565b905061080a6060830184610774565b95945050505050565b6000604051905081810181811067ffffffffffffffff8211171561083657600080fd5b8060405250919050565b600067ffffffffffffffff82111561085757600080fd5b601f19601f8301169050602081019050919050565b6000819050602082019050919050565b600081519050919050565b600081519050919050565b6000602082019050919050565b600082825260208201905092915050565b600082825260208201905092915050565b600082825260208201905092915050565b6000819050919050565b82818337600083830152505050565b60005b838110156109095780820151818401526020810190506108ee565b83811115610918576000848401525b50505050565b6000601f19601f8301169050919050565b610938816108d2565b811461094357600080fd5b5056fea365627a7a72315820f6b80725be84b65091dc2672674f34703db1624613ed88f28272be2ca23309f26c6578706572696d656e74616cf564736f6c63430005100040",
  "source": "pragma solidity ^0.5.16;\r\npragma experimental ABIEncoderV2;\r\n\r\ncontract Exemptions {\r\n    uint256 public exemptionCount = 0;\r\n\r\n    struct Exemption {\r\n        uint256 id;\r\n        string name;\r\n        string course;\r\n        uint256 student_id;\r\n    }\r\n\r\n    mapping(uint256 => Exemption) public exemptions;\r\n\r\n    constructor() public {\r\n        createExemption(\"teststudent\", \"testvak\", 1000);\r\n    }\r\n\r\n    function fromStudent(uint256 student_id)\r\n        public\r\n        view\r\n        returns (string[] memory filtered)\r\n    {\r\n        string[] memory tempList = new string[](exemptionCount);\r\n        uint256 count = 0;\r\n        for (uint256 i = 0; i < exemptionCount; i++) {\r\n            if (exemptions[i].student_id == student_id) {\r\n                tempList[count] = exemptions[i].course;\r\n                count++;\r\n            }\r\n        }\r\n\r\n        filtered = new string[](count);\r\n\r\n        for (uint256 i = 0; i < count; i++) {\r\n            filtered[i] = tempList[i];\r\n        }\r\n    }\r\n\r\n    function createExemption(\r\n        string memory _name,\r\n        string memory _course,\r\n        uint256 _student_id\r\n    ) public {\r\n        exemptions[exemptionCount] = Exemption(\r\n            exemptionCount,\r\n            _name,\r\n            _course,\r\n            _student_id\r\n        );\r\n        exemptionCount++;\r\n    }\r\n}\r\n",
  "sourcePath": "C:/Users/remip/Desktop/Code/python/SDP4a/diplomaarchive/blockchain/contracts/Exemptions.sol",
  "compiler": {
    "name": "solc",
    "version": "0.5.16+commit.9c3226ce.Emscripten.clang"
  },
  "schemaVersion": "3.3.4",
  "updatedAt": "2021-02-22T09:51:52.339Z",
  "networkType": "ethereum",
  "devdoc": {
    "methods": {}
  },
  "userdoc": {
    "methods": {}
  }
}