{
  "contractName": "Exemptions",
  "abi": [
    {
      "inputs": [],
      "payable": false,
      "stateMutability": "nonpayable",
      "type": "constructor"
    },
    {
      "constant": true,
      "inputs": [],
      "name": "exemptionCount",
      "outputs": [
        {
          "internalType": "uint256",
          "name": "",
          "type": "uint256"
        }
      ],
      "payable": false,
      "stateMutability": "view",
      "type": "function"
    },
    {
      "constant": true,
      "inputs": [
        {
          "internalType": "uint256",
          "name": "",
          "type": "uint256"
        }
      ],
      "name": "exemptions",
      "outputs": [
        {
          "internalType": "uint256",
          "name": "id",
          "type": "uint256"
        },
        {
          "internalType": "string",
          "name": "name",
          "type": "string"
        },
        {
          "internalType": "string",
          "name": "course",
          "type": "string"
        },
        {
          "internalType": "uint256",
          "name": "student_id",
          "type": "uint256"
        }
      ],
      "payable": false,
      "stateMutability": "view",
      "type": "function"
    },
    {
      "constant": false,
      "inputs": [
        {
          "internalType": "string",
          "name": "_name",
          "type": "string"
        },
        {
          "internalType": "string",
          "name": "_course",
          "type": "string"
        },
        {
          "internalType": "uint256",
          "name": "_student_id",
          "type": "uint256"
        }
      ],
      "name": "createExemption",
      "outputs": [],
      "payable": false,
      "stateMutability": "nonpayable",
      "type": "function"
    }
  ],
  "bytecode": "0x60806040526000805534801561001457600080fd5b506100926040518060400160405280600b81526020017f7465737473747564656e740000000000000000000000000000000000000000008152506040518060400160405280600781526020017f7465737476616b000000000000000000000000000000000000000000000000008152506103e861009760201b60201c565b6101da565b600080815480929190600101919050555060405180608001604052806000548152602001848152602001838152602001828152506001600080548152602001908152602001600020600082015181600001556020820151816001019080519060200190610105929190610135565b506040820151816002019080519060200190610122929190610135565b5060608201518160030155905050505050565b828054600181600116156101000203166002900490600052602060002090601f016020900481019282601f1061017657805160ff19168380011785556101a4565b828001600101855582156101a4579182015b828111156101a3578251825591602001919060010190610188565b5b5090506101b191906101b5565b5090565b6101d791905b808211156101d35760008160009055506001016101bb565b5090565b90565b6105bf806101e96000396000f3fe608060405234801561001057600080fd5b50600436106100415760003560e01c806309b0e24c1461004657806364382630146101a2578063efd1b5bb146102c3575b600080fd5b6101a06004803603606081101561005c57600080fd5b810190808035906020019064010000000081111561007957600080fd5b82018360208201111561008b57600080fd5b803590602001918460018302840111640100000000831117156100ad57600080fd5b91908080601f016020809104026020016040519081016040528093929190818152602001838380828437600081840152601f19601f8201169050808301925050505050505091929192908035906020019064010000000081111561011057600080fd5b82018360208201111561012257600080fd5b8035906020019184600183028401116401000000008311171561014457600080fd5b91908080601f016020809104026020016040519081016040528093929190818152602001838380828437600081840152601f19601f820116905080830192505050505050509192919290803590602001909291905050506102e1565b005b6101ce600480360360208110156101b857600080fd5b810190808035906020019092919050505061037f565b604051808581526020018060200180602001848152602001838103835286818151815260200191508051906020019080838360005b8381101561021e578082015181840152602081019050610203565b50505050905090810190601f16801561024b5780820380516001836020036101000a031916815260200191505b50838103825285818151815260200191508051906020019080838360005b83811015610284578082015181840152602081019050610269565b50505050905090810190601f1680156102b15780820380516001836020036101000a031916815260200191505b50965050505050505060405180910390f35b6102cb6104df565b6040518082815260200191505060405180910390f35b60008081548092919060010191905055506040518060800160405280600054815260200184815260200183815260200182815250600160008054815260200190815260200160002060008201518160000155602082015181600101908051906020019061034f9291906104e5565b50604082015181600201908051906020019061036c9291906104e5565b5060608201518160030155905050505050565b6001602052806000526040600020600091509050806000015490806001018054600181600116156101000203166002900480601f0160208091040260200160405190810160405280929190818152602001828054600181600116156101000203166002900480156104315780601f1061040657610100808354040283529160200191610431565b820191906000526020600020905b81548152906001019060200180831161041457829003601f168201915b505050505090806002018054600181600116156101000203166002900480601f0160208091040260200160405190810160405280929190818152602001828054600181600116156101000203166002900480156104cf5780601f106104a4576101008083540402835291602001916104cf565b820191906000526020600020905b8154815290600101906020018083116104b257829003601f168201915b5050505050908060030154905084565b60005481565b828054600181600116156101000203166002900490600052602060002090601f016020900481019282601f1061052657805160ff1916838001178555610554565b82800160010185558215610554579182015b82811115610553578251825591602001919060010190610538565b5b5090506105619190610565565b5090565b61058791905b8082111561058357600081600090555060010161056b565b5090565b9056fea265627a7a723158206e041ebfc22a6015e7843860b9cf3a46cf97cdcd40fb2c1583fc876c4fa8f9b464736f6c63430005100032",
  "source": "pragma solidity ^0.5.16;\r\n\r\ncontract Exemptions {\r\n    uint256 public exemptionCount = 0;\r\n\r\n    struct Exemption {\r\n        uint256 id;\r\n        string name;\r\n        string course;\r\n        uint256 student_id;\r\n    }\r\n\r\n    mapping(uint256 => Exemption) public exemptions;\r\n\r\n    constructor() public {\r\n        createExemption(\"teststudent\", \"testvak\", 1000);\r\n    }\r\n\r\n    function createExemption(\r\n        string memory _name,\r\n        string memory _course,\r\n        uint256 _student_id\r\n    ) public {\r\n        exemptionCount++;\r\n        exemptions[exemptionCount] = Exemption(\r\n            exemptionCount,\r\n            _name,\r\n            _course,\r\n            _student_id\r\n        );\r\n    }\r\n}\r\n",
  "sourcePath": "C:/Users/remip/Desktop/Code/python/SDP4a/blockchain/contracts/Exemptions.sol",
  "compiler": {
    "name": "solc",
    "version": "0.5.16+commit.9c3226ce.Emscripten.clang"
  },
  "schemaVersion": "3.3.4",
  "updatedAt": "2021-02-17T19:37:09.870Z",
  "networkType": "ethereum",
  "devdoc": {
    "methods": {}
  },
  "userdoc": {
    "methods": {}
  }
}